:080000000C9434000C94000084
:100008000C9400000C9400000C9400000C94000068
:100018000C9400000C9400000C9400000C94000058
:100028000C9400000C9400000C9400000C94000048
:100038000C9400000C9400000C9400000C94000038
:100048000C9400000C9400000C94000001002D4E4C
:10005800414E00494E460000010060025400000075
:10006800F894EE27ECBBF1E0FBBFEBBFE5BF8DE0FA
:10007800A2E0BB27ED938A95E9F780E098E0A0E637
:10008800ED930197E9F7E0E6F0E085919591009707
:1000980061F0A591B59105901590BF01F00105900B
:1000A8000D920197E1F7FB01F0CFEFE5EDBFE8E036
:1000B800EEBFC0E6D2E00C946100E0E0EABBEFEFEF
:1000C800EBBBE4BBE0E0E5BBC89B0AD0C99BACD066
:1000D800CA9BCDD0CB9B1DD1CC9B46D1F5CFFFCFB2
:1000E80044245524E4E0F0E04E165F060CF09BC073
:1000F8000E9493030E949A037F936F93FF93EF9359
:100108000E9493030E94A303AF91BF918F919F9187
:100118000E94AF03C89B08C0C99B06C0CA9B04C005
:10012800CB9B02C0CC9901C008950E94B503F2018F
:1001380031963F01E6E0F0E0E419F509E615F70528
:1001480094F10E9493030E949A037F936F93FF9305
:10015800EF930E9493030E94A303AF91BF918F91E5
:100168009F910E94E0047F936F93FF93EF930E9407
:1001780093030E94B903AF91BF918F919F910E9401
:10018800AF03C89B08C0C99B06C0CA9B04C0CB9BD1
:1001980002C0CC9901C008950E94B503F3013196BD
:1001A8003F013197C7CFE6E0F0E0E419F5093F01D8
:1001B800F20131966E167F0694F10E9493030E9415
:1001C8009A037F936F93FF93EF930E9493030E9488
:1001D800A303AF91BF918F919F910E94E0047F93F9
:1001E8006F93FF93EF930E9493030E94B903AF911B
:1001F800BF918F919F910E94AF03C89B08C0C99B74
:1002080006C0CA9B04C0CB9B02C0CC9901C008950C
:100218000E94B503F30131973F013196C9CFF2012E
:1002280031962F015FCF5CCFEAEAE5BBAEE1B0E0E3
:100238000E941304C89B08C0C99B06C0CA9B04C07F
:10024800CB9B02C0CC9901C00895E5E5E5BBAEE1C2
:10025800B0E00E941304C89B08C0C99B06C0CA9B93
:1002680004C0CB9B02C0CC9901C00895DDCFE0E06B
:10027800E5BB442455240E94C2030CF5E5B3F0E025
:10028800FF93EF930E9493030E949A03AF91BF914B
:100298000E94F0050E9415060E94AF03C89B08C083
:1002A800C99B06C0CA9B04C0CB9B02C0CC9901C0A5
:1002B80008950E94B503F20131962F01DCCF442442
:1002C80055240E94C20324F5E5B3F0E0FF93EF93B1
:1002D8000E9493030E949A03AF91BF910E94F00578
:1002E8000E9415060E94C7030E946D04E5BBC89BC7
:1002F80008C0C99B06C0CA9B04C0CB9B02C0CC994E
:1003080001C008950E94B503F20131962F01D9CF9B
:10031800B0CFE0E0E5BB442455240E94C2031CF59D
:10032800E5B3EE0FE5BBCB990FC0A6E4B0E00E94A1
:10033800130466247724461457048CF0E5B3EE0FB3
:10034800EF5FE5BBCB9B03C0E0E0E5BB0895A6E407
:10035800B0E00E941304F30131963F01ECCFF201A3
:1003680031962F01DACFD5CF2297E2E3E883E0E098
:10037800E983A881B9811297D4F0E9E9E5BBCC9962
:1003880008C0A881B9810E941304E6E6E5BBCC9BAE
:1003980004C0E0E0E5BB22960895A881B9810E94D7
:1003A8001304E881F9813397E883F983E2CF229631
:1003B800DBCF0E940E067B816A81F981E88177FB99
:1003C800770F67FD7160972F9E5781F078F098310D
:1003D80090F4AA27BB27882708948795B795A795EF
:1003E8009A95D1F7EA23FB23682305C0E894772779
:1003F800EE27FF2766276F77769508F4606877F908
:10040800A991B99189919991EA17FB07680779072A
:1004180097FB08950E940E060E94FF050E94DD01C9
:100428000E94040619F40E94CC0305C0E6F70E9456
:10043800CC030E94CF03249608950E940E062497A9
:100448001A930A930E94D6030E9429062CF0EFEF14
:10045800FFEF6FE77FEF73C00E94DB030E9409067E
:10046800ADB7BEB711971F930F930E941D040F914C
:100478001F910E94E0030E94D603E3EFF4E065E3D6
:100488007FE30E94C30540F40E94E5030E94E00454
:100498000E94E003015010400E94DB030E94CF033A
:1004A8007F936F93FF93EF930E94DB03A0E0B0E08C
:1004B80080E89FE30E94E004AF91BF918F919F91E4
:1004C8000E947E050E94E0030E94E5030E94E70364
:1004D800A6E2B2E485E69FE30E94EE03EEE4F1E1D2
:1004E80064E570E40E94C7030E94D6030E943005A9
:1004F8007F936F93FF93EF930E94F303ADE4B1E111
:1005080084ED9FE30E94D904AF91BF918F919F9191
:100518000E947E057F936F93FF93EF93F8010E94EB
:10052800EB050E94A604A8E1B2E781E39FE30E94DD
:100538003005AF91BF918F919F910E94E00419817E
:1005480008812A9608950E940E0628971A930A93FE
:100558000E94F803E0E5FCEA6EEA72EC0E94C3052B
:1005680018F40E94FD0385C0EA85FB856C857D85AE
:100578000E94250629F4E0E0F0E060E87FE379C016
:100588000E94F803E8E1F2E761EB72E40E94C30518
:1005980009F008F405C0EFEFFFEF6FE77FE769C0E8
:1005A8000E94F803EBE3FAEA68EB7FE30E94300568
:1005B800EA87FB876C877D870E94F8032BDF0E9400
:1005C8006F048F010E94F8030E94EB050E94A604A5
:1005D8000E94C703DF01CB01E0E0F0E060E07FE3C9
:1005E8000E94C7030E94E0030E94E5030E94E703FC
:1005F800ADE6BCE48CE69DE30E943005A6EAB3EEC6
:1006080086EE90E40E94E0040E94D6030E94300522
:100618000E94E0030E94F303A8E2BDE886EA91E4A1
:100628000E94E004EA83FB836C837D830E94DB03E2
:10063800AA81BB818C819D810E94E004A3EFB4E074
:1006480085EB9FE30E9430057F936F93FF93EF93B1
:100658000E94D6030E94F3030E94D904AF91BF9170
:100668008F919F910E947E050E940906D8010E94E1
:100678002E04198108812E9608950E940E0624974B
:100688000E9402040E94250619F40E94FD0345C039
:10069800A885B9858A859B850E94290694F40E94BD
:1006A80007040E94250629F4E0E0F0E060E87FE313
:1006B80034C0A885B9858A859B850E940C0443DFD0
:1006C8002CC00E940704DE010E946F040E94F505F9
:1006D8000E94CC030E94A604DF01CB010E940704FC
:1006E8000E942F0619F00E94FD0317C00E94020401
:1006F8000E943A04DF01CB010E940C0424DFE88742
:10070800F9876A877B87E881E17019F40E940204FF
:1007180004C00E9402040E943A042C960895E0E066
:10072800F0E060E070E40E9409060895F2010E947A
:10073800EB050E94A604DF01CB010C944103E7E01E
:10074800F0E0E419F5090E94EB050E94A604DF0118
:10075800CB010C9441030E94E0040E946D04E5BBA8
:100768000895A2E3B0E00C941304F3010E94EB0592
:100778000E94A604DF01CB010C944103E8E0F0E0FD
:100788004E165F0608950E9418060E94D90408951F
:100798000E94FA050895A0E0B0E080E89FE30E9477
:1007A800D9040895AE81BF81888599850895EE8121
:1007B800FF81688579850895EE83FF836887798747
:1007C8000895F5DFEFCF0E943005EA83FB836C8341
:1007D8007D8308950E943005DF01CB010895EA81E9
:1007E800FB816C817D810895AA85BB858C859D855B
:1007F8000895E0E0F0E060E070E00895E885F985AC
:100808006A857B850895EC81FD816E817F810895DD
:100818000E942102AC81BD818E819F81DBCF109621
:1008280039F080ED97E00197F1F7A8951197C9F78E
:100838000895E991F9916991799177FB660F771F8E
:1008480088277E57880B7D938C937EE776956795EE
:100858006EF00895E991F9916991799177FB660FA6
:10086800771F7A0F769567950EF008953097604058
:10087800704009F070580895552342F4503811F427
:10088800E0FF04C03196691F791F6BF050E85727C5
:1008980011F45F93CFC05F3F31F0660F000C57959E
:1008A8006795752F08955F9300200AF0CFC0C8C0E0
:1008B80050E8192E1522880F991F9527550F8795EF
:1008C80050E8072E0522660F771F7527550F679585
:1008D8000895689401C0E8945F93F2DF703818F0C7
:1008E8007F3F08F4A7C056E1571BAAF4519558302A
:1008F8000EF4593030F0EFEFFFEF6FEF7FE777F945
:100908001AC077275523B9F0EE0FFF1F661F771F10
:100918005A95D1F710C07727583028F0EF2FF62FC7
:10092800672F5850F9CF552331F076956795F7958D
:10093800E7955A95D1F700200AF441D15F910895BF
:10094800689401C0E894309760407040B1F000248A
:1009580026F0772312F4009432D1172E7EE111206D
:1009680032F07A95EE0FFF1F661F111CF9CFEF2F9B
:10097800F62F612D5F938ADF5F9108954F93AF0142
:10098800FD01DA01AB01BC01CA01402D012C142E76
:100998004F910895EA0FFB1F681F0895E095F095A1
:1009A8006095EF5FFF4F6F4F08955F9381DF903839
:1009B80071F150E8152604C05F937ADF903839F159
:1009C800703821F1572F591B2BF112F4D7DFFACFCA
:1009D800583118F0AA27BB278827583028F0AB2FA2
:1009E800B82F88275850F9CF552329F08695B79501
:1009F800A7955A95D9F7502D512572F0CBDF38F4C9
:100A08006795F795E795739513F420C0B7DF3EDF38
:100A18005F910895D8F7FBCFEA1BFB0B680B51F0E9
:100A280010F40094BBDF662392F3EE0FFF1F661FDE
:100A38007A95CBF7EE27FF27662777275F910895EA
:100A4800EFEFFFEF6FE77FEF5F910895EFEFFFEFB5
:100A58006FE77FE75F9108955F932ADF703851F35E
:100A6800903841F301240894791F23F41CF30020E3
:100A78003AF3ECCF0F921F932F933F934F93112785
:100A880022279927689FA0018F9F302D410D591F5C
:100A98006B9F300D411D591F8E9F27D0BF9F25D0BA
:100AA8006A9F23D0BE9F1DD0AF9F1BD0AE9F110D54
:100AB800291F391F491F591FE32FF42F652F522F64
:100AC8004F913F912F911F910F9066232AF0550F58
:100AD800EE1FFF1F661F02C073954BF2CDDE5F91BC
:100AE8000895100D211D391F02C0200D311D491F09
:100AF800591F08955F93DCDE703821F411200AF441
:100B08009FCFA4CF903809F495CF01240894970B70
:100B18001BF4D4F30020F3CF792F1F932F933F9327
:100B28004F9311241127222733274427552790E272
:100B3800AE17BF078607410730F0AE1BBF0B860B09
:100B4800410B089401C08894551F221F331F111CA4
:100B5800AA1FBB1F881F441F9A9551F7F901612DE1
:100B68004F913F912F911F91662332F0550FEE1F41
:100B7800FF1F661F7A9543F27FDE5F9108959923E0
:100B88009AF0772342F0971748F029F4AE17BF0779
:100B9800860720F031F098948894089598940894E2
:100BA80008951894889408957723C2F7971798F3AF
:100BB800A9F7EA17FB07680788F399F3ECCFF095D4
:100BC80060957095E195FF4F6F4F7F4F08956F2F98
:100BD800660F660B762F08958B2F880F880B982F3A
:100BE8000895ED93FD936D937C930895E881F981C1
:100BF8006A817B810895A881B9818A819B81089542
:100C0800E883F9836A837B8308957A936A93FA93D6
:100C1800EA9308959A938A93BA93AA930895689445
:100C280001C0E89401D08FDE182E862F612D192E71
:100C3800972F712D1B2EBF2FF12D1A2EAE2FE12DC0
:100C48000895309760407040089500240A160B06F6
:100C5800080609060895EA17FB0768077907089543
:00000001FF
